{
  "transactions": [
    {
      "hash": "0x2ee2d42f68769e9b7f153f1fd0c339162b7e7f0444c362e7dd3218714bcd504a",
      "transactionType": "CALL",
      "contractName": null,
      "contractAddress": "0x888d81e3ea5e8362b5f69188cbcf34fa8da4b888",
      "function": "buy(address)",
      "arguments": [
        "0x68f4322ce72E3DE5B4DbC33976Ba4c7E65e969a4"
      ],
      "transaction": {
        "from": "0x68f4322ce72e3de5b4dbc33976ba4c7e65e969a4",
        "to": "0x888d81e3ea5e8362b5f69188cbcf34fa8da4b888",
        "gas": "0x20bc4",
        "value": "0x38d7ea4c68000",
        "input": "0xf088d54700000000000000000000000068f4322ce72e3de5b4dbc33976ba4c7e65e969a4",
        "nonce": "0x18d",
        "chainId": "0x2105"
      },
      "additionalContracts": [],
      "isFixedGasLimit": false
    },
    {
      "hash": "0xaa3ca66cc95f943fe3ac015e0ec2af2d92f2f2f2b2f33f6831f26ed3f57bda15",
      "transactionType": "CALL",
      "contractName": null,
      "contractAddress": "0x888d81e3ea5e8362b5f69188cbcf34fa8da4b888",
      "function": "sell(uint256)",
      "arguments": [
        "998141875074621245831"
      ],
      "transaction": {
        "from": "0x68f4322ce72e3de5b4dbc33976ba4c7e65e969a4",
        "to": "0x888d81e3ea5e8362b5f69188cbcf34fa8da4b888",
        "gas": "0x1766e",
        "value": "0x0",
        "input": "0xe4849b320000000000000000000000000000000000000000000000361c004aff81200987",
        "nonce": "0x18e",
        "chainId": "0x2105"
      },
      "additionalContracts": [],
      "isFixedGasLimit": false
    }
  ],
  "receipts": [
    {
      "status": "0x1",
      "cumulativeGasUsed": "0x3bae58e",
      "logs": [
        {
          "address": "0x888d81e3ea5e8362b5f69188cbcf34fa8da4b888",
          "topics": [
            "0xddf252ad1be2c89b69c2b068fc378daa952ba7f163c4a11628f55a4df523b3ef",
            "0x0000000000000000000000000000000000000000000000000000000000000000",
            "0x00000000000000000000000068f4322ce72e3de5b4dbc33976ba4c7e65e969a4"
          ],
          "data": "0x0000000000000000000000000000000000000000000000361c004aff81200987",
          "blockHash": "0x9222e1abe07000ff1f117915c6627b07e83c8461a01f721ef9bbd4cd0f4a480b",
          "blockNumber": "0x1d773db",
          "transactionHash": "0x2ee2d42f68769e9b7f153f1fd0c339162b7e7f0444c362e7dd3218714bcd504a",
          "transactionIndex": "0xd7",
          "logIndex": "0x3f6",
          "removed": false
        },
        {
          "address": "0x888d81e3ea5e8362b5f69188cbcf34fa8da4b888",
          "topics": [
            "0x2d7972e635b540e3a7d69ab075a726bac4112e45f631bde1b551cb069dcad6df"
          ],
          "data": "0x000000000000000000000000fed2ff614e0289d41937139730b49ee158d02299000000000000000000000000000000000000000000000000000000746a528800",
          "blockHash": "0x9222e1abe07000ff1f117915c6627b07e83c8461a01f721ef9bbd4cd0f4a480b",
          "blockNumber": "0x1d773db",
          "transactionHash": "0x2ee2d42f68769e9b7f153f1fd0c339162b7e7f0444c362e7dd3218714bcd504a",
          "transactionIndex": "0xd7",
          "logIndex": "0x3f7",
          "removed": false
        },
        {
          "address": "0x888d81e3ea5e8362b5f69188cbcf34fa8da4b888",
          "topics": [
            "0x4afcb4a87cdbd9974efdb92ee48bc8d7cd0ae4bf217004db3d080cbaee652ca7"
          ],
          "data": "0x0000000000000000000000000000000000000000000000000000000068394499000000000000000000000000000000000000000000000000000000e907e64c7300000000000000000000000000000000000000000000000000038d7ea4c68000",
          "blockHash": "0x9222e1abe07000ff1f117915c6627b07e83c8461a01f721ef9bbd4cd0f4a480b",
          "blockNumber": "0x1d773db",
          "transactionHash": "0x2ee2d42f68769e9b7f153f1fd0c339162b7e7f0444c362e7dd3218714bcd504a",
          "transactionIndex": "0xd7",
          "logIndex": "0x3f8",
          "removed": false
        }
      ],
      "logsBloom": "0x02000000000000000000000000000000000000000000000000000000000000000200000000000000000000000000000000000000000000004000000000000000000000000000000000000008000000000000000000000000000000000000000000000000020000000000000000000800020000000000000000000010000000000000000020000000000000000000000000000000000000000000000000000000000000000000000000000000000080004000000000000000000000000200000000000002000000000000000000000000000000000000400000000000000020010010000000000000000000000000000000002000000000000000000000000000",
      "type": "0x2",
      "transactionHash": "0x2ee2d42f68769e9b7f153f1fd0c339162b7e7f0444c362e7dd3218714bcd504a",
      "transactionIndex": "0xd7",
      "blockHash": "0x9222e1abe07000ff1f117915c6627b07e83c8461a01f721ef9bbd4cd0f4a480b",
      "blockNumber": "0x1d773db",
      "gasUsed": "0x16622",
      "effectiveGasPrice": "0x18bd37",
      "from": "0x68f4322ce72e3de5b4dbc33976ba4c7e65e969a4",
      "to": "0x888d81e3ea5e8362b5f69188cbcf34fa8da4b888",
      "contractAddress": null,
      "l1BaseFeeScalar": "0x8dd",
      "l1BlobBaseFee": "0x1",
      "l1BlobBaseFeeScalar": "0x101c12",
      "l1Fee": "0x16d58e1d7",
      "l1GasPrice": "0x64a2b167",
      "l1GasUsed": "0x640"
    },
    {
      "status": "0x1",
      "cumulativeGasUsed": "0x3bbf4a3",
      "logs": [
        {
          "address": "0x888d81e3ea5e8362b5f69188cbcf34fa8da4b888",
          "topics": [
            "0xddf252ad1be2c89b69c2b068fc378daa952ba7f163c4a11628f55a4df523b3ef",
            "0x00000000000000000000000068f4322ce72e3de5b4dbc33976ba4c7e65e969a4",
            "0x0000000000000000000000000000000000000000000000000000000000000000"
          ],
          "data": "0x0000000000000000000000000000000000000000000000361c004aff81200987",
          "blockHash": "0x9222e1abe07000ff1f117915c6627b07e83c8461a01f721ef9bbd4cd0f4a480b",
          "blockNumber": "0x1d773db",
          "transactionHash": "0xaa3ca66cc95f943fe3ac015e0ec2af2d92f2f2f2b2f33f6831f26ed3f57bda15",
          "transactionIndex": "0xd8",
          "logIndex": "0x3f9",
          "removed": false
        },
        {
          "address": "0x888d81e3ea5e8362b5f69188cbcf34fa8da4b888",
          "topics": [
            "0x2d7972e635b540e3a7d69ab075a726bac4112e45f631bde1b551cb069dcad6df"
          ],
          "data": "0x00000000000000000000000068f4322ce72e3de5b4dbc33976ba4c7e65e969a400000000000000000000000000000000000000000000000000038bad42704740",
          "blockHash": "0x9222e1abe07000ff1f117915c6627b07e83c8461a01f721ef9bbd4cd0f4a480b",
          "blockNumber": "0x1d773db",
          "transactionHash": "0xaa3ca66cc95f943fe3ac015e0ec2af2d92f2f2f2b2f33f6831f26ed3f57bda15",
          "transactionIndex": "0xd8",
          "logIndex": "0x3fa",
          "removed": false
        },
        {
          "address": "0x888d81e3ea5e8362b5f69188cbcf34fa8da4b888",
          "topics": [
            "0x2d7972e635b540e3a7d69ab075a726bac4112e45f631bde1b551cb069dcad6df"
          ],
          "data": "0x000000000000000000000000fed2ff614e0289d41937139730b49ee158d02299000000000000000000000000000000000000000000000000000000744c86973a",
          "blockHash": "0x9222e1abe07000ff1f117915c6627b07e83c8461a01f721ef9bbd4cd0f4a480b",
          "blockNumber": "0x1d773db",
          "transactionHash": "0xaa3ca66cc95f943fe3ac015e0ec2af2d92f2f2f2b2f33f6831f26ed3f57bda15",
          "transactionIndex": "0xd8",
          "logIndex": "0x3fb",
          "removed": false
        },
        {
          "address": "0x888d81e3ea5e8362b5f69188cbcf34fa8da4b888",
          "topics": [
            "0x4afcb4a87cdbd9974efdb92ee48bc8d7cd0ae4bf217004db3d080cbaee652ca7"
          ],
          "data": "0x0000000000000000000000000000000000000000000000000000000068394499000000000000000000000000000000000000000000000000000000e907e935d400000000000000000000000000000000000000000000000000038c95db7d75b5",
          "blockHash": "0x9222e1abe07000ff1f117915c6627b07e83c8461a01f721ef9bbd4cd0f4a480b",
          "blockNumber": "0x1d773db",
          "transactionHash": "0xaa3ca66cc95f943fe3ac015e0ec2af2d92f2f2f2b2f33f6831f26ed3f57bda15",
          "transactionIndex": "0xd8",
          "logIndex": "0x3fc",
          "removed": false
        }
      ],
      "logsBloom": "0x02000000000000000000000000000000000000000000000000000000000000000200000000000000000000000000000000000000000000004000000000000000000000000000000000000008000000000000000000000000000000000000000000000000020000000000000000000800020000000000000000000010000000000000000020000000000000000000000000000000000000000000000000000000000000000000000000000000000080004000000000000000000000000200000000000002000000000000000000000000000000000000400000000000000020010010000000000000000000000000000000002000000000000000000000000000",
      "type": "0x2",
      "transactionHash": "0xaa3ca66cc95f943fe3ac015e0ec2af2d92f2f2f2b2f33f6831f26ed3f57bda15",
      "transactionIndex": "0xd8",
      "blockHash": "0x9222e1abe07000ff1f117915c6627b07e83c8461a01f721ef9bbd4cd0f4a480b",
      "blockNumber": "0x1d773db",
      "gasUsed": "0x10f15",
      "effectiveGasPrice": "0x18bd37",
      "from": "0x68f4322ce72e3de5b4dbc33976ba4c7e65e969a4",
      "to": "0x888d81e3ea5e8362b5f69188cbcf34fa8da4b888",
      "contractAddress": null,
      "l1BaseFeeScalar": "0x8dd",
      "l1BlobBaseFee": "0x1",
      "l1BlobBaseFeeScalar": "0x101c12",
      "l1Fee": "0x16d58e1d7",
      "l1GasPrice": "0x64a2b167",
      "l1GasUsed": "0x640"
    }
  ],
  "libraries": [],
  "pending": [],
  "returns": {},
  "timestamp": 1748583578,
  "chain": 8453,
  "commit": "2f8f603"
}